:0400000095EF0BF07D
:1000080000C022F001C021F002C020F003C01FF0A0
:1000180004C01EF005C01DF006C01CF007C01BF090
:1000280008C01AF009C019F00AC018F00BC017F080
:100038000CC016F00EC015F0F2A450D034C000F079
:1000480035C001F036C002F037C003F0000E046E70
:10005800000E056E000E066E7F0E076E85EC05F02D
:1000680000C034F001C035F002C036F003C037F0EC
:1000780040C000F041C001F042C002F043C003F0AC
:10008800000E046E000E056E000E066E7F0E076EE3
:1000980085EC05F000C040F001C041F002C042F01C
:1000A80003C043F044C000F045C001F046C002F070
:1000B80047C003F0000E046E000E056E000E066EBB
:1000C8007F0E076E85EC05F000C044F001C045F0D6
:1000D80002C046F003C047F0F294D66A22C000F08E
:1000E80021C001F020C002F01FC003F01EC004F0C0
:1000F8001DC005F01CC006F01BC007F01AC008F0B0
:1001080019C009F018C00AF017C00BF016C00CF09F
:0601180015C00EF01100FD
:10011E000B840BAE9AEF00F0010E036E026A016AB9
:0A012E00006A0A360232FF0E1200CA
:080138000AAE029E000E120047
:10014000C7B409D01F0EC514016E0150000A03E1A7
:0A015000010E006E01D0006A1200DB
:0E015A00026A016A006A086A036A000E120057
:04016800C584120038
:10016C00086A080E0C6E003408360450085ED8B0CD
:0E017C0002D00826D89000360C2EF5D71200BF
:0A018A001D0E0D6E0D2EFED71200A3
:0A019400C582C5A201D0FDD71200FC
:10019E009E96C5869EB601D0FDD7C9CF01F000014F
:1001AE008551000A02E1C58A01D0C59A9E96C5887E
:0C01BE009EB601D0FDD701C000F0120079
:1001CA000001856B866B8651120802E185518E0803
:1001DA0008E3B1DF005201E004D00001854B862B11
:1001EA00F2D70001120E865D02E18F0E855D03E3F0
:1001FA007B0E006E05D0C580C5A001D0FDD7006A70
:02020A001200E0
:10020C000B820BAE10EF01F0036802680168006806
:08021C000A360232FF0E120047
:100224000C6A0E6A0250D8A42BEF01F001C002F050
:1002340000C001F0006A0E860250D8A42BEF01F032
:1002440001C002F0016A0E960E880250D8B43DEF48
:1002540001F00E50035ED8A4D8A042EF01F0D8906C
:1002640002BE47EF01F0003601360236032E32EFAC
:1002740001F042EF01F0010E0C6E6DDF4AEF01F068
:10028400020E0C6E4ADF4AEF01F0040E0C6E52DFD0
:02029400120056
:100296009E9685C0C9FFC7A401D0FDD79EB601D0E2
:1002A600FDD7C5BC02D0006A03D0C584020E006E1D
:0202B600120034
:1002B80000C008F00150006E016A026A036A0B6A06
:1002C8000C6A016A026A036A960E036E0A6A00AE35
:1002D80074EF01F0081E001E082AD8B4002A0A8EFE
:1002E80000C001F008C000F0086A026A97DF120037
:1002F800C26A070EC012C08E7FC000F000360090A0
:10030800003600900050C212C2803BDFC282C2A2F7
:1003180001D0FDD7C4CF01F0006AC3500012000E0F
:060328000112C290120058
:10032E000CB0D9EF01F00CA27FEF02F00E6A000EB6
:10033E000264F0EF01F0F00E0214D8A4BBEF01F04E
:10034E00023A01380F0B02260138F00B016E00380D
:10035E000F0B01260038F00B006E08380F0B00262D
:10036E000838F00B086E0E84D89002BED4EF01F060
:10037E0008360036013602360E2A02BED4EF01F0E0
:10038E0008360036013602360E2A02BED4EF01F0D0
:10039E0008360036013602360E2A0E50036475EF0B
:1003AE0002F0035E0BBC08AE7AEF02F0D880800E2E
:1003BE0008640030000E002201220222D8A07AEF3B
:1003CE0002F0023201320032034A7FEF02F07AEF7E
:1003DE0002F001C002F000C001F008C000F0086A8F
:1003EE00000E0E86026427EF02F0F00E0214D8A45F
:1003FE000FEF02F0023A01380F0B02260138F00B14
:10040E00016E00380F0B01260038F00B006E0E84C3
:10041E00D89002BED4EF01F00036013602360E2A15
:10042E0002BED4EF01F00036013602360E2A02BEAD
:10043E00D4EF01F00036013602360E2AD4EF01F069
:10044E0001C002F000C001F0006A000E0E960E8888
:10045E00026454EF02F0F00E0214D8A43FEF02F043
:10046E00023A01380F0B02260138F00B016E0E8492
:10047E00D89002BED4EF01F0013602360E2A02BE2B
:10048E00D4EF01F0013602360E2A02BED4EF01F08F
:10049E00013602360E2AD4EF01F001C002F0016AD5
:1004AE00000E0E86026484EF02F0F00E0214D8A441
:1004BE0063EF02F0023A0E84D89002BED4EF01F040
:1004CE0002360E2A02BED4EF01F002360E2A02BE0A
:1004DE00D4EF01F002360E2AD4EF01F0010E0C6EAD
:1004EE0017DE87EF02F0020E0C6E1FDE87EF02F0B2
:1004FE00040E0C6E84DE87EF02F0080E0C6E26DE04
:02050E001200D9
:100510005CDE260E0001856FBEDE7FC085F0BBDE8F
:0A05200080C085F0B8DE20DE120076
:10052A000A6A0350D8A40A800750D8A40A820A503B
:10053A00D8B4F8EF02F0030AD8B4B1EF02F00AB067
:10054A00ACEF02F006AEF6EF02F0F4EF02F002AE04
:10055A00F4EF02F0F6EF02F00250800B0A6E029EF0
:10056A000650800B069E0A18D8B4C2EF02F00A5051
:10057A00D8B4F4EF02F0F6EF02F00750035CD8B4F7
:10058A00CCEF02F0D8A0E8EF02F0EEEF02F006504E
:10059A00025CD8B4D6EF02F0D8A0E8EF02F0EEEF92
:1005AA0002F00550015CD8B4E0EF02F0D8A0E8EF01
:1005BA0002F0EEEF02F00450005CD8B4F8EF02F05B
:1005CA00D8B0EEEF02F00A52D8B4F6EF02F0F4EF28
:1005DA0002F00A52D8B4F4EF02F0F6EF02F0D88033
:0E05EA001200D8901200D880D884120012009F
:1005F8000001826B030E825D0AE282518025E16E62
:10060800000E8121E26E200EE66E822BF3D7825116
:100618008025E16E000E8121E26EE66A8207825132
:100628008025836F000E8121846F0A0E046E7FC0BF
:1006380000F098DD08C000F0300E002683C0E1FF0E
:1006480084C0E2FF00C0E6FF0A0E046E7FC000F01F
:1006580089DD00C07FF00050000A01E102D0820766
:04066800DED71200C7
:10066C00086A096A100E0C6E0134083609360450FB
:10067C00085E0550D8A0053C095ED8B007D00450E0
:10068C0008260550D8B0053C0926D890003601360E
:06069C000C2EEAD712004B
:1006A20099D0020E306E000E316E3C0E2E6E000E90
:1006B2002F6E120E326E000E336E2D0E386E000E3D
:1006C200396EC3D0080E306E000E316E320E2E6EB1
:1006D200000E2F6E110E326E000E336E1E0E386E2D
:1006E200000E396EB2D00A0E306E000E316E320E2E
:1006F2002E6E000E2F6E110E326E000E336E1E0E17
:10070200386E000E396EA1D00C0E306E000E316EB6
:10071200320E2E6E000E2F6E110E326E000E336EE2
:100722001E0E386E000E396E90D00D0E306E000E19
:10073200316E2D0E2E6E000E2F6E0D0E326E000ECD
:10074200336E2D0E386E000E396E7FD0110E306E64
:10075200000E316E1E0E2E6E000E2F6E0C0E326EBD
:10076200000E336E320E386E000E396E6ED0110EE0
:10077200306E000E316E1E0E2E6E000E2F6E0A0EA1
:10078200326E000E336E320E386E000E396E5DD050
:10079200110E306E000E316E1E0E2E6E000E2F6E7A
:1007A200080E326E000E336E320E386E000E396E47
:1007B2004CD0120E306E000E316E2D0E2E6E000ECB
:1007C2002F6E020E326E000E336E3C0E386E000E2D
:1007D200396E3BD0000E0001801902E1040E7F1930
:1007E200D8B45FD7000E801902E1030E7F19D8B486
:1007F20069D7000E801902E1020E7F19D8B473D7AF
:10080200000E801902E1010E7F19D8B47DD7000EC7
:10081200801902E1000E7F1988E0FF0E801902E1C3
:10082200FF0E7F1993E0FF0E801902E1FE0E7F1981
:100832009EE0FF0E801902E1FD0E7F19A9E0FF0E76
:0C084200801902E1FC0E7F19B4E01200E6
:10084E00BDDC260E0001856F1FDD7FC085F01CDD2F
:10085E009ADC270E0001856F17DD0001856B98DC91
:0C086E0000C062F07ADC62C000F01200F2
:10087A00949894968B988B9694889486C79EC79CD6
:06088A00380EC66E1200DC
:10089000810E00017F6FDBDF00C07FF05B0E000187
:1008A000806F000E816FA8DE830E7F6F140E806F45
:1008B0002FDE830E00017F6FCADF00C07FF05B0E6A
:1008C0000001806F000E816F97DE820E7F6F040E35
:1008D000806F1EDE820E00017F6FB9DF00C07FF0E7
:1008E0005B0E0001806F000E816F86DE800E7F6FD1
:1008F000070E806F0DDE800E00017F6FA8DF00C045
:100900007FF05B0E0001806F000E816F75DE890E37
:100910007F6F020E806FFCDD890E00017F6F97DF15
:1009200000C07FF05B0E0001806F000E816F64DEFF
:10093000840E7F6F1D0E806FEBDD840E00017F6FD4
:1009400086DF00C07FF05B0E0001806F000E816FBC
:0409500053DE120060
:1009540077C000F078C001F0ADDC40C004F041C0C5
:1009640005F042C006F043C007F0DDDD000ED8B04C
:10097400010E006E0052D8A48A8C77C000F078C0B3
:1009840001F098DC00C004F001C005F002C006F0DC
:1009940003C007F040C000F041C001F042C002F0C3
:1009A40043C003F0C0DD000ED8B0010E006E00524B
:1009B40018E0000179517725006E7A517821016E93
:1009C40079DC40C004F041C005F042C006F043C0E9
:1009D40007F0A9DD000ED8B0010E006E0052D8A4B5
:1009E4008A9C000179517725006E7A517821016E35
:1009F40061DC00C004F001C005F002C006F003C0D1
:100A040007F040C000F041C001F042C002F043C012
:100A140003F089DD000ED8B0010E006E005204E030
:0A0A2400406A416A426A436A120008
:100A2E0077C000F078C001F040DC34C004F035C06F
:100A3E0005F036C006F037C007F070DD000ED8B0F6
:100A4E00010E006E0052D8A48A8A77C000F078C0DA
:100A5E0001F02BDC00C004F001C005F002C006F06E
:100A6E0003C007F034C000F035C001F036C002F00C
:100A7E0037C003F053DD000ED8B0010E006E0052E9
:100A8E0018E0000179517725006E7A517821016EB8
:100A9E000CDC34C004F035C005F036C006F037C0AB
:100AAE0007F03CDD000ED8B0010E006E0052D8A447
:100ABE008A9A000179517725006E7A517821016E5C
:100ACE005CEC01F000C004F001C005F002C006F0BD
:100ADE0003C007F034C000F035C001F036C002F09C
:100AEE0037C003F01BDD000ED8B0010E006E0052B1
:0C0AFE0004E0346A356A366A376A120078
:100B0A00025006180E6E086A096A0B6A03500764D7
:100B1A0078EF06F006500A6E068E028E03500B6EB0
:100B2A000750036E000E0B64C8EF05F00B50075E0A
:100B3A00D8B469EF06F0070E076437EF06F0075ED0
:100B4A0000C008F001C000F002C001F0026A074EBE
:100B5A0069EF06F007640CEF06F0075E00C008F0C4
:100B6A0001C000F0016A074E69EF06F00764EAEF78
:100B7A0005F0075E00C008F0006A074E69EF06F04C
:100B8A000764D1EF05F00AC002F005C001F004C005
:100B9A0000F0086A95EF07F0030E0764DCEF05F032
:100BAA00075E08380F0B086E074E69EF06F0D890FB
:100BBA000832074E69EF06F0D8900832074E69EFFF
:100BCA0006F0D890083269EF06F0030E0764FBEFCF
:100BDA0005F0075E08380F0B086E0038F00B082680
:100BEA0000380F0B006E074E69EF06F0D8900032FE
:100BFA000832074E69EF06F0D89000320832074EE5
:100C0A0069EF06F0D8900032083269EF06F0030E59
:100C1A00076423EF06F0075E08380F0B086E0038EA
:100C2A00F00B082600380F0B006E0138F00B002677
:100C3A0001380F0B016E074E69EF06F0D8900132AA
:100C4A0000320832074E69EF06F0D89001320032BE
:100C5A000832074E69EF06F0D890013200320832A6
:100C6A0069EF06F0030E076454EF06F0075E0838D2
:100C7A000F0B086E0038F00B082600380F0B006EB9
:100C8A000138F00B002601380F0B016E0238F00B09
:100C9A00012602380F0B026E074E69EF06F0D89054
:100CAA000232013200320832074E69EF06F0D8905C
:100CBA000232013200320832074E69EF06F0D8904C
:100CCA000232013200320832096A000E0EAE5DEFBE
:100CDA0007F0081E001E011E021E082A0022012219
:100CEA0002225DEF07F00750D8A47EEF06F095EFD9
:100CFA0007F0096A02C00AF0028E068E0750035CEA
:100D0A00076ED8B450EF07F0070E07641EEF07F01E
:100D1A00075E0450096E0550046E0650056E066A99
:100D2A00074E50EF07F0070E0764F3EF06F0075E71
:100D3A000450096E0550046E056A074E50EF07F01D
:100D4A00070E0764D1EF06F0075E0450096E046AC5
:100D5A00074E50EF07F0070E0764B8EF06F00AC017
:100D6A0002F095EF07F0030E0764C3EF06F0075E83
:100D7A0009380F0B096E074E50EF07F0D890093269
:100D8A00074E50EF07F0D8900932074E50EF07F0A0
:100D9A00D890093250EF07F0030E0764E2EF06F02D
:100DAA00075E09380F0B096E0438F00B0926043860
:100DBA000F0B046E074E50EF07F0D8900432093239
:100DCA00074E50EF07F0D89004320932074E50EF21
:100DDA0007F0D8900432093250EF07F0030E076487
:100DEA000AEF07F0075E09380F0B096E0438F00B9B
:100DFA00092604380F0B046E0538F00B0426053853
:100E0A000F0B056E074E50EF07F0D89005320432EB
:100E1A000932074E50EF07F0D890053204320932F2
:100E2A00074E50EF07F0D89005320432093250EFDE
:100E3A0007F0030E07643BEF07F0075E09380F0B54
:100E4A00096E0438F00B092604380F0B046E0538B6
:100E5A00F00B042605380F0B056E0638F00B052635
:100E6A0006380F0B066E074E50EF07F0D890063281
:100E7A00053204320932074E50EF07F0D890063295
:100E8A00053204320932074E50EF07F0D890063285
:100E9A00053204320932086A000E0EAE5DEF07F021
:100EAA00091E041E051E061E092A04220522062200
:100EBA000950082604500022055001220650022239
:100ECA000EBE74EF07F0D8A083EF07F002320132AA
:100EDA0000320832033E83EF07F08FEF07F0D8B0F5
:100EEA0089EF07F0000E081E001E011E021E082AC6
:100EFA000022012202220A7E89EF07F0010E0C6EFF
:100F0A0097EC01F097EF07F0020E0C6E97EC01F0E8
:100F1A0097EF07F0040E0C6E06EC01F097EF07F05E
:060F2A00000E0C6E120027
:100F3000000E511802E1010E50181FE1000E4F186B
:100F400002E1010E4E1819E1000E531802E1010EE4
:100F5000521813E1000E571802E1010E56180DE168
:100F6000000E551802E1010E541807E100017F6BD5
:100F7000806B51EC03F04C6A4D6A000E511802E18F
:100F8000000E50181FE1000E4F1802E1000E4E181F
:100F900019E1000E531802E1010E521813E1000E80
:100FA000571802E1000E56180DE1000E551802E127
:100FB000000E541807E100017F6B806B51EC03F0C9
:100FC0004C6A4D6A000E511802E1000E50181FE1E4
:100FD000000E4F1802E1010E4E1819E1000E5318D1
:100FE00002E1010E521813E1000E571802E1010E42
:100FF00056180DE1000E551802E1000E541807E1D5
:1010000000017F6B806B51EC03F04C6A4D6A000E5F
:10101000511802E1010E501823E1000E4F1802E1B1
:10102000000E4E181DE1000E531802E1000E52187A
:1010300017E1000E571802E1000E561811E1000EDC
:10104000551802E1000E54180BE1040E00017F6FE9
:10105000000E806F51EC03F0040E4C6E000E4D6ECE
:10106000000E511802E1010E501823E1000E4F1836
:1010700002E1010E4E181DE1000E531802E1000EB0
:10108000521817E1000E571802E1000E561811E130
:10109000000E551802E1000E54180BE1040E000179
:1010A0007F6F000E806F51EC03F0030E4C6E000E4C
:1010B0004D6E000E511802E1000E501823E1000E93
:1010C0004F1802E1010E4E181DE1000E531802E107
:1010D000000E521817E1000E571802E1000E5618C4
:1010E00011E1000E551802E1000E54180BE1040E38
:1010F00000017F6F000E806F51EC03F0020E4C6E0A
:10110000000E4D6E000E511802E1010E501823E141
:10111000000E4F1802E1010E4E181DE1000E53188B
:1011200002E1010E521817E1000E571802E1000EFD
:10113000561811E1000E551802E1000E54180BE18B
:10114000040E00017F6F000E806F51EC03F0020E61
:101150004C6E000E4D6E000E511802E1000E50183C
:1011600023E1000E4F1802E1010E4E181DE1000EA2
:10117000531802E1010E521817E1000E571802E150
:10118000000E561811E1000E551802E1000E541819
:101190000BE1040E00017F6F000E806F51EC03F035
:1011A000010E4C6E000E4D6E000E511802E1010E44
:1011B000501823E1000E4F1802E1010E4E181DE1F8
:1011C000000E531802E1010E521817E1000E5718D5
:1011D00002E1010E561811E1000E551802E1000E51
:1011E00054180BE1040E00017F6F000E806F51EC6C
:1011F00003F0010E4C6E000E4D6E000E511802E110
:10120000000E501823E1000E4F1802E1000E4E1898
:101210001DE1000E531802E1000E521817E1000EF6
:10122000571802E1000E561811E1000E551802E1A0
:10123000010E54180BE1FC0E00017F6FFF0E806F52
:1012400051EC03F0FC0E4C6EFF0E4D6E000E51186B
:1012500002E1000E501823E1000E4F1802E1000ECB
:101260004E181DE1000E531802E1000E521817E14E
:10127000000E571802E1010E561811E1000E551824
:1012800002E1010E54180BE1FC0E00017F6FFF0E0E
:10129000806F51EC03F0FD0E4C6EFF0E4D6E000E94
:1012A000511802E1000E501823E1000E4F1802E120
:1012B000000E4E181DE1000E531802E1000E5218E8
:1012C00017E1000E571802E1010E561811E1000E49
:1012D000551802E1000E54180BE1FC0E00017F6F5F
:1012E000FF0E806F51EC03F0FE0E4C6EFF0E4D6E44
:1012F000000E511802E1000E501823E1000E4F18A5
:1013000002E1000E4E181DE1000E531802E1010E1D
:10131000521817E1000E571802E1010E561811E19C
:10132000000E551802E1010E54180BE1FC0E0001ED
:101330007F6FFF0E806F51EC03F0FE0E4C6EFF0EC0
:101340004D6E000E511802E1000E501823E1000E00
:101350004F1802E1000E4E181DE1000E531802E175
:10136000010E521817E1000E571802E1010E56182F
:1013700011E1000E551802E1000E54180BE1FC0EAD
:1013800000017F6FFF0E806F51EC03F0FF0E4C6E7B
:10139000FF0E4D6E000E511802E1000E501823E1B1
:1013A000000E4F1802E1010E4E181DE1000E5318F9
:1013B00002E1010E521817E1000E571802E1010E6A
:1013C000561811E1000E551802E1010E54180BE1F8
:1013D000FC0E00017F6FFF0E806F51EC03F0FF0EDB
:1013E0004C6EFF0E4D6E000E511802E1000E5018AB
:1013F00025E1000E4F1802E1000E4E181FE1000E0D
:10140000531802E1000E521819E1000E571802E1BC
:10141000000E561813E1000E551802E1000E541884
:101420000DE1FF0E4D1802E1FC0E4C1807E1FC0E19
:1014300000017F6FFF0E806F51EC03F0000E51181A
:1014400002E1000E501825E1000E4F1802E1000ED7
:101450004E181FE1000E531802E1000E521819E158
:10146000000E571802E1000E561813E1000E551831
:1014700002E1000E54180DE1000E4D1802E1040EB9
:101480004C1807E1040E00017F6F000E806F51ECD5
:0414900003F0120053
:10149400E5EC00F0260E0001856F4BEC01F077C0FF
:1014A40085F04BEC01F0CAEC00F0270E0001856FCB
:1014B4004BEC01F000017E6B7AC001F07BC002F0BE
:1014C4007CC003F07DC004F0010E015E000E025AE0
:1014D400035A045A0450000808E10350000805E1C7
:1014E4000250000802E101507E5D0FE2010E856F9B
:1014F400CFEC00F078C0E1FF79C0E2FF00C0E6FF66
:101504000001784B792B7E2BD7D7856BCFEC00F07D
:1015140078C0E1FF79C0E2FF00C0E6FFB4EC00F060
:021524001200B3
:10152600040E00017F6F7CEC01F000C025F001C0C5
:1015360026F0030E00017F6F7CEC01F000C023F063
:1015460001C024F0020E00017F6F7CEC01F000C0A8
:1015560027F001C028F0010E00017F6F7CEC01F03E
:1015660000C02BF001C02CF000017F6B7CEC01F079
:1015760000C029F001C02AF0800E3B18026E800ED2
:101586000118025C02E100503A5C04E2010E506E62
:10159600000E516E800E2A18006E800E3B18005CFD
:1015A60002E13A50295C02E2506A516A800E3B1809
:1015B600006E800E2C18005C02E12B503A5C04E2AF
:1015C600010E4E6E000E4F6E800E2C18006E800EB1
:1015D6003B18005C02E13A502B5C02E24E6A4F6A0D
:1015E600800E3B18006E800E2818005C02E1275022
:1015F6003A5C04E2010E526E000E536E800E2818FD
:10160600006E800E3B18005C02E13A50275C02E255
:10161600526A536A800E3B18006E800E2418005CD6
:1016260002E123503A5C04E2010E566E000E576E3C
:10163600800E2418006E800E3B18005C02E13A50C2
:10164600235C02E2566A576A800E3B18006E800ED3
:101656002618005C02E125503A5C04E2010E546E45
:10166600000E556E800E2618006E800E3B18005C2C
:0E16760002E13A50255C02E2546A556A120005
:101684000900F5CFE6FF0006FBE10106F9E11200CF
:1016940000017B6B050E7B5D0AE27B517925E16ECF
:1016A400000E7A21E26E200EE66E7B2BF3D77B517F
:1016B4007925E16E000E7A21E26EE66A7B077B51A2
:1016C40079257C6F000E7A217D6F0A0E046E000E60
:1016D400056E77C000F078C001F036EC03F008C066
:1016E40000F009C001F0300E00267CC0E1FF7DC08F
:1016F400E2FF00C0E6FF0A0E046E000E056E77C01E
:1017040000F078C001F036EC03F000C077F001C0BF
:1017140078F0000E011802E1000E001801E102D079
:061724007B07CDD7120087
:10172A002C0E3A6E010E3B6E346A356A366A376A97
:10173A00406A416A426A436A446A456A466A476A33
:10174A004A6A4B6A640E306E000E316E640E2E6E5B
:10175A00000E2F6E640E326E000E336E640E386EFB
:10176A00000E396E486A496A2F0E0F01386F2F0E24
:10177A00926E896A396B936A93803A6B946A8B6A20
:10178A0094803B6B956A8C6A3C6B966AFF0E8D6EF1
:10179A00C00EF26EC20ED56ED66AF28EF28A280E8C
:1017AA00C86E3DEC04F0B4EC00F048EC04F03C6A7E
:1017BA003D6A3E6A3F6A2D6A100E2D5C2CE20001DA
:1017CA00800E7F6F27EC04F000C072F000AAF7D7F2
:1017DA00870E0001776F620E786F000E796F020E26
:1017EA007A6F000E7B6F7C6F7D6F4FDE62C001F0F7
:1017FA00006A000163510012000E011200C075F068
:10180A0001C076F000503C2601503D22000E3E22D7
:10181A003F222D2AD1D7040E046E3CC000F03DC0F1
:10182A0001F03EC002F03FC003F0045007E003326B
:10183A00023201320032039EFF0FF8D7000100C0C6
:10184A0073F001C074F0140E0024596EFF0E59167D
:10185A00140E0026000E0122000E0014036E015021
:10186A00FF0B046E04C000F0016A00C058F08C0E31
:10187A007F6F00C080F088EC02F08D0E00017F6F50
:10188A0059C080F088EC02F0140E00017325776FBE
:10189A00000E7421786F5B0E796F000E7A6FF5DE99
:1018AA008A6A020E0B6E040E0C6EBA0E0D6E0D2EA7
:1018BA00FED70C2EFCD70B2EFAD700008C908C92F8
:1018CA008C968C9A2BDE98EC07F0000E4B1802E1EE
:1018DA00000E4A1815E132C077F033C078F038C0EC
:1018EA0079F039C07AF017EC05F030C077F031C0E2
:1018FA0078F02EC079F02FC07AF0AAEC04F015D057
:10190A000001020E776F000E786F500E796F000E8D
:10191A007A6F17EC05F0020E776F000E786F500E93
:10192A00796F000E7A6FAAEC04F00001800E7F6FC7
:10193A0027EC04F000C072F0600E00160052F5E0C9
:10194A008E0E00017F6F27EC04F000C05AF000A051
:10195A0007D08E0E00017F6F5AC080F088EC02F02B
:10196A00000172AB44D0870E776F620E786F000E5B
:10197A00796F020E7A6F000E7B6F7C6F7D6F85DD4B
:10198A0062C001F0006A000163510012000E0112E8
:10199A0000C075F001C076F000C077F001C078F0A1
:1019AA005B0E796F000E7A6F70DE320E7325016E50
:1019BA00000E7421026E0250765D02E10150755DDF
:1019CA0002E28A848C944A6A4B6A320E7325016E4B
:1019DA00000E7421026E7651025C02E17551015CBF
:1019EA0006E28A948C84010E4A6E000E4B6E44C045
:1019FA0004F045C005F046C006F047C007F0000EE7
:101A0A00006E000E016E2F0E026E880E036E95ECAC
:101A1A0002F0010ED8B0000E006E000E491802E165
:101A2A00000E4818010ED8A4000E016E01500016CF
:101A3A0007E08A82446A456A466A476A484A492AE6
:101A4A0044C004F045C005F046C006F047C007F0A0
:101A5A00000E006E000E016E2F0E026E880E036ECF
:101A6A0095EC02F0010ED8B0000E006E000E491877
:101A7A0002E1010E4818010ED8A4000E016E0150B1
:101A8A00001607E08A92446A456A466A476A484AE3
:101A9A00492A000E491802E1020E481802E1486A72
:061AAA00496A10D7FFD7C6
:020000040030CA
:0D000100331F3CFFBF81FF0FC00FE00F4019
:00000001FF
