:0400000094EF05F084
:1000080000C021F001C020F002C01FF003C01EF0A4
:1000180004C01DF005C01CF006C01BF007C01AF094
:1000280008C019F00AC018F00BC017F00CC016F081
:100038000EC015F0F2A47FD02EC000F02FC001F042
:1000480030C002F031C003F0000E046E000E056EE1
:10005800000E066E7F0E076E75DA00C02EF001C026
:100068002FF002C030F003C031F036C000F037C0C6
:1000780001F038C002F039C003F0000E046E000E23
:10008800056E000E066E7F0E076E5CDA00C036F055
:1000980001C037F002C038F003C039F02AC000F0C0
:1000A8002BC001F02CC002F02DC003F0000E046E2E
:1000B800000E056E000E066E7F0E076E43DA00C056
:1000C8002AF001C02BF002C02CF003C02DF022C092
:1000D80000F023C001F024C002F025C003F0000E98
:1000E800046E000E056E000E066E7F0E076E2ADA8D
:1000F80000C022F001C023F002C024F003C025F0A4
:1001080032C000F033C001F034C002F035C003F053
:10011800000E046E000E056E000E066E7F0E076E52
:1001280011DA00C032F001C033F002C034F003C06D
:1001380035F0F294D66A21C000F020C001F01FC04B
:1001480002F01EC003F01DC004F01CC005F01BC067
:1001580006F01AC007F019C008F018C00AF017C056
:0C0168000BF016C00CF015C00EF01100DA
:080174000AAE029E000E12000B
:10017C000B840BAEC9EF00F0010E036E026A016A2C
:0A018C00006A0A360232FF0E12006C
:0E019600026A016A006A086A036A000E12001B
:1001A4000C6A0E6A0250D8A4EBEF00F001C002F012
:1001B40000C001F0006A0E860250D8A4EBEF00F0F4
:1001C40001C002F0016A0E960E880250D8B4FDEF09
:1001D40000F00E50035ED8A4D8A002EF01F0D8902E
:1001E40002BE07EF01F0003601360236032EF2EFAD
:1001F40000F002EF01F0010E0C6ECBDF0AEF01F00C
:10020400020E0C6EB9DF0AEF01F0040E0C6EB0DFC3
:020214001200D6
:100216000B820BAE15EF01F00368026801680068F7
:080226000A360232FF0E12003D
:10022E000CB059EF01F00CA2FFEF01F00E6A000EB8
:10023E00026470EF01F0F00E0214D8A43BEF01F04F
:10024E00023A01380F0B02260138F00B016E00380E
:10025E000F0B01260038F00B006E08380F0B00262E
:10026E000838F00B086E0E84D89002BE54EF01F0E1
:10027E0008360036013602360E2A02BE54EF01F061
:10028E0008360036013602360E2A02BE54EF01F051
:10029E0008360036013602360E2A0E500364F5EF8C
:1002AE0001F0035E0BBC08AEFAEF01F0D880800EB1
:1002BE0008640030000E002201220222D8A0FAEFBC
:1002CE0001F0023201320032034AFFEF01F0FAEF81
:1002DE0001F001C002F000C001F008C000F0086A91
:1002EE00000E0E860264A7EF01F0F00E0214D8A4E1
:1002FE008FEF01F0023A01380F0B02260138F00B96
:10030E00016E00380F0B01260038F00B006E0E84C4
:10031E00D89002BE54EF01F00036013602360E2A96
:10032E0002BE54EF01F00036013602360E2A02BE2E
:10033E0054EF01F00036013602360E2A54EF01F06A
:10034E0001C002F000C001F0006A000E0E960E8889
:10035E000264D4EF01F0F00E0214D8A4BFEF01F046
:10036E00023A01380F0B02260138F00B016E0E8493
:10037E00D89002BE54EF01F0013602360E2A02BEAC
:10038E0054EF01F0013602360E2A02BE54EF01F090
:10039E00013602360E2A54EF01F001C002F0016A56
:1003AE00000E0E86026404EF02F0F00E0214D8A4C2
:1003BE00E3EF01F0023A0E84D89002BE54EF01F042
:1003CE0002360E2A02BE54EF01F002360E2A02BE8B
:1003DE0054EF01F002360E2A54EF01F0010E0C6EAE
:1003EE00C6DE07EF02F0020E0C6EBDDE07EF02F066
:1003FE00040E0C6E09DF07EF02F0080E0C6EC4DE61
:02040E001200DA
:100410000A6A0350D8A40A800750D8A40A820A5056
:10042000D8B46BEF02F0030AD8B424EF02F00AB09C
:100430001FEF02F006AE69EF02F067EF02F002AEC6
:1004400067EF02F069EF02F00250800B0A6E029E25
:100450000650800B069E0A18D8B435EF02F00A50F9
:10046000D8B467EF02F069EF02F00750035CD8B42C
:100470003FEF02F0D8A05BEF02F061EF02F0065010
:10048000025CD8B449EF02F0D8A05BEF02F061EF54
:1004900002F00550015CD8B453EF02F0D8A05BEF36
:1004A00002F061EF02F00450005CD8B46BEF02F090
:1004B000D8B061EF02F00A52D8B469EF02F067EFEA
:1004C00002F00A52D8B467EF02F069EF02F0D88068
:0E04D0001200D8901200D880D88412001200BA
:1004DE0000C008F00150006E016A026A036A0B6ADE
:1004EE000C6A016A026A036A960E036E0A6A00AE0D
:1004FE0087EF02F0081E001E082AD8B4002A0A8EC2
:10050E0000C001F008C000F0086A026A44DE120062
:10051E0003500718D8A4A3EF02F002500618D8A46F
:10052E00A3EF02F001500518D8A4A3EF02F000507B
:0E053E000418D8B4D8841200D8941200120009
:10054C00025006180E6E086A096A0B6A035007649B
:10055C0099EF03F006500A6E068E028E03500B6E56
:10056C000750036E000E0B64E9EF02F00B50075EB0
:10057C00D8B48AEF03F0070E076458EF03F0075E58
:10058C0000C008F001C000F002C001F0026A074E82
:10059C008AEF03F007642DEF03F0075E00C008F04C
:1005AC0001C000F0016A074E8AEF03F007640BEFFD
:1005BC0003F0075E00C008F0006A074E8AEF03F0F4
:1005CC000764F2EF02F00AC002F005C001F004C0AB
:1005DC0000F0086AB3EF04F0030E0764FDEF02F0BD
:1005EC00075E08380F0B086E074E8AEF03F0D890A1
:1005FC000832074E8AEF03F0D8900832074E8AEF84
:10060C0003F0D89008328AEF03F0030E07641CEF56
:10061C0003F0075E08380F0B086E0038F00B082645
:10062C0000380F0B006E074E8AEF03F0D8900032A3
:10063C000832074E8AEF03F0D89000320832074E8A
:10064C008AEF03F0D890003208328AEF03F0030EE1
:10065C00076444EF03F0075E08380F0B086E003890
:10066C00F00B082600380F0B006E0138F00B00263B
:10067C0001380F0B016E074E8AEF03F0D890013250
:10068C0000320832074E8AEF03F0D8900132003264
:10069C000832074E8AEF03F0D8900132003208324C
:1006AC008AEF03F0030E076475EF03F0075E08385A
:1006BC000F0B086E0038F00B082600380F0B006E7D
:1006CC000138F00B002601380F0B016E0238F00BCD
:1006DC00012602380F0B026E074E8AEF03F0D890FA
:1006EC000232013200320832074E8AEF03F0D89002
:1006FC000232013200320832074E8AEF03F0D890F2
:10070C000232013200320832096A000E0EAE7EEF60
:10071C0004F0081E001E011E021E082A00220122DF
:10072C0002227EEF04F00750D8A49FEF03F0B3EF42
:10073C0004F0096A02C00AF0028E068E0750035CB0
:10074C00076ED8B471EF04F0070E07643FEF04F0A6
:10075C00075E0450096E0550046E0650056E066A5D
:10076C00074E71EF04F0070E076414EF04F0075EF8
:10077C000450096E0550046E056A074E71EF04F0C3
:10078C00070E0764F2EF03F0075E0450096E046A6B
:10079C00074E71EF04F0070E0764D9EF03F00AC09F
:1007AC0002F0B3EF04F0030E0764E4EF03F0075E0E
:1007BC0009380F0B096E074E71EF04F0D89009320F
:1007CC00074E71EF04F0D8900932074E71EF04F028
:1007DC00D890093271EF04F0030E076403EF04F0B4
:1007EC00075E09380F0B096E0438F00B0926043824
:1007FC000F0B046E074E71EF04F0D89004320932DF
:10080C00074E71EF04F0D89004320932074E71EFA5
:10081C0004F0D8900432093271EF04F0030E07642F
:10082C002BEF04F0075E09380F0B096E0438F00B40
:10083C00092604380F0B046E0538F00B0426053816
:10084C000F0B056E074E71EF04F0D8900532043291
:10085C000932074E71EF04F0D89005320432093298
:10086C00074E71EF04F0D89005320432093271EF63
:10087C0004F0030E07645CEF04F0075E09380F0BFD
:10088C00096E0438F00B092604380F0B046E05387A
:10089C00F00B042605380F0B056E0638F00B0526F9
:1008AC0006380F0B066E074E71EF04F0D890063227
:1008BC00053204320932074E71EF04F0D89006323B
:1008CC00053204320932074E71EF04F0D89006322B
:1008DC00053204320932086A000E0EAE7EEF04F0C7
:1008EC00091E041E051E061E092A042205220622C4
:1008FC0009500826045000220550012206500222FD
:10090C000EBE95EF04F0D8A0A4EF04F00232013231
:10091C0000320832033EA4EF04F0AEEF04F0D8B07E
:10092C00A9EF04F0000E081E001E011E021E082A6C
:10093C000022012202220A7EA9EF04F0010E0C6EA5
:10094C0070DCB5EF04F0020E0C6E6BDCB5EF04F04E
:10095C00040E0C6E5ADCB5EF04F0000E0C6E120097
:10096C003EC000F03FC001F0B4DD2EC004F02FC03B
:10097C0005F030C006F031C007F044DD000ED8B0F1
:10098C00010E006E00521DE0000E046E000E056E8E
:10099C00000E066E7F0E076E3AC000F03BC001F0F1
:1009AC003CC002F03DC003F0B4DD010ED8A4000E33
:1009BC00006E005206E08A8A366A376A386A396AEB
:1009CC0004D03A6A3B6A3C6A3D6A40C000F041C0C0
:1009DC0001F07FDD36C004F037C005F038C006F0FA
:1009EC0039C007F00FDD000ED8B0010E006E0052BA
:1009FC0019E0046A056A066A076A3AC000F03BC04F
:100A0C0001F03CC002F03DC003F083DD010ED8A420
:100A1C00000E006E005206E08A9A2E6A2F6A306A27
:100A2C00316A08D0000E3A6E000E3B6E000E3C6E22
:060A3C007F0E3D6E12006A
:100A42000900F5CFE6FF0006FBE10106F9E112001D
:100A52003EC000F03FC001F041DD2AC004F02BC0CF
:100A620005F02CC006F02DC007F0D1DC000ED8B086
:100A7200010E006E00521DE0000E046E000E056EA7
:100A8200000E066E7F0E076E26C000F027C001F032
:100A920028C002F029C003F041DD010ED8A4000EE7
:100AA200006E005206E08A8C226A236A246A256A52
:100AB20004D0266A276A286A296A40C000F041C029
:100AC20001F00CDD22C004F023C005F024C006F0C2
:100AD20025C007F09CDC000ED8B0010E006E00525B
:100AE20019E0046A056A066A076A26C000F027C090
:100AF20001F028C002F029C003F010DD010ED8A4D5
:100B0200000E006E005206E08A9C2A6A2B6A2C6A4A
:100B12002D6A08D0000E266E000E276E000E286E7B
:060B22007F0E296E120097
:100B2800000E3A6E000E3B6E000E3C6E7F0E3D6E60
:100B3800000E266E000E276E000E286E7F0E296EA0
:100B48002E6A2F6A306A316A366A376A386A396AB1
:100B58002A6A2B6A2C6A2D6A226A236A246A256A01
:100B6800326A336A346A356A0F01396B936A8A6A62
:100B78003A6B946A8B6A3B6B956A8C6A3C6B966A93
:100B8800FF0E8D6EC00EF26EC20ED56ED66AF28E54
:100B9800F28A010E3E6E000E3F6E060E406E000E8B
:100BA800416EE0DE010E3E6E000E3F6E060E406E98
:100BB800000E416E4ADF000E046E000E056E7A0EBE
:100BC800066E880E076E32C000F033C001F034C0E4
:100BD80002F035C003F018DC000ED8B0010E006E2C
:100BE800005206E0831C8C6E326A336A346A356AB6
:040BF800D0D7FFD77C
:020000040030CA
:0D000100231F3CFFBF81FF0FC00FE00F4029
:00000001FF
