:1000000031EF03F00000000000EF00F000000000FE
:0A0010000000000000000000F3D71C
:0C001C000E0E0D6E0D2EFED7000012001F
:10002800C26A070EC012C08E2BC000F000360090C6
:10003800003600900050C212C280ECDFC282C2A219
:1000480001D0FDD7C4CF01F0006AC3500012000EE2
:060058000112C29012002B
:10005E0012D08C8046D08C8244D08C8442D08C8638
:10006E0040D08C883ED08C8A3CD08C8C3AD08C8EF2
:10007E0038D08D8036D0000E2C1802E1040E2B18CD
:10008E00E8E0000E2C1802E1030E2B18E4E0000E3F
:10009E002C1802E1020E2B18E0E0000E2C1802E1E3
:1000AE00010E2B18DCE0000E2C1802E1000E2B18AE
:1000BE00D8E0FF0E2C1802E1FF0E2B18D4E0FF0E35
:1000CE002C1802E1FE0E2B18D0E0FF0E2C1802E1C8
:1000DE00FD0E2B18CCE0FF0E2C1802E1FC0E2B1897
:0400EE00C8E0120054
:1000F200000E241802E1010E23181BE1000E221843
:1001020002E1010E211815E1000E261802E1010E8E
:1001120025180FE1000E2A1802E1010E291809E143
:10012200000E281802E1010E271803E12B6A2C6A3F
:1001320095DF000E241802E1000E23181BE1000EC9
:10014200221802E1000E211815E1000E261802E124
:10015200010E25180FE1000E2A1802E1000E2918DF
:1001620009E1000E281802E1000E271803E12B6AAC
:100172002C6A74DF000E241802E1000E23181BE122
:10018200000E221802E1010E211815E1000E2618B8
:1001920002E1010E25180FE1000E2A1802E1010EFC
:1001A200291809E1000E281802E1000E271803E1C0
:1001B2002B6A2C6A53DF000E241802E1010E231869
:1001C2001DE1000E221802E1000E211817E1000EB7
:1001D200261802E1000E251811E1000E2A1802E18C
:1001E200000E29180BE1000E281802E1000E271854
:1001F20005E1040E2B6E000E2C6E30DF000E24186B
:1002020002E1010E23181DE1000E221802E1010E87
:10021200211817E1000E261802E1000E251811E13F
:10022200000E2A1802E1000E29180BE1000E281810
:1002320002E1000E271805E1030E2B6E000E2C6E54
:100242000DDF000E241802E1000E23181DE1000E3E
:10025200221802E1010E211817E1000E261802E110
:10026200000E251811E1000E2A1802E1000E2918CD
:100272000BE1000E281802E1000E271805E1020E1C
:100282002B6E000E2C6EEADE000E241802E1010E27
:1002920023181DE1000E221802E1010E211817E1B8
:1002A200000E261802E1010E251811E1000E2A188F
:1002B20002E1000E29180BE1000E281802E1000EDF
:1002C200271805E1020E2B6E000E2C6EC7DE000E03
:1002D200241802E1000E23181DE1000E221802E18B
:1002E200010E211817E1000E261802E1010E251851
:1002F20011E1000E2A1802E1000E29180BE1000E8E
:10030200281802E1000E271805E1010E2B6E000EDF
:100312002C6EA4DE000E241802E1010E23181DE14A
:10032200000E221802E1010E211817E1000E261814
:1003320002E1010E251811E1000E2A1802E1010E58
:1003420029180BE1000E281802E1000E271805E11A
:10035200010E2B6E000E2C6E81DE000E241802E1BF
:10036200000E23181DE1000E221802E1000E2118D2
:1003720017E1000E261802E1000E251811E1000E09
:100382002A1802E1000E29180BE1000E281802E1DA
:10039200010E271805E1FC0E2B6EFF0E2C6E5EDEA1
:1003A200000E241802E1000E23181DE1000E22188F
:1003B20002E1000E211817E1000E261802E1000EDC
:1003C200251811E1000E2A1802E1010E29180BE18D
:1003D200000E281802E1010E271805E1FD0E2B6E12
:1003E200FF0E2C6E3BDE000E241802E1000E2318D5
:1003F2001DE1000E221802E1000E211817E1000E85
:10040200261802E1000E251811E1000E2A1802E159
:10041200010E29180BE1000E281802E1000E271820
:1004220005E1FE0E2B6EFF0E2C6E18DE000E241858
:1004320002E1000E23181DE1000E221802E1000E57
:10044200211817E1000E261802E1010E251811E10C
:10045200000E2A1802E1010E29180BE1000E2818DD
:1004620002E1010E271805E1FE0E2B6EFF0E2C6E27
:10047200F5DD000E241802E1000E23181DE1000E26
:10048200221802E1000E211817E1000E261802E1DF
:10049200010E251811E1000E2A1802E1010E291899
:1004A2000BE1000E281802E1000E271805E1FF0EED
:1004B2002B6EFF0E2C6ED2DD000E241802E1000E10
:1004C20023181DE1000E221802E1010E211817E186
:1004D200000E261802E1010E251811E1000E2A185D
:1004E20002E1010E29180BE1000E281802E1010EAB
:1004F200271805E1FF0E2B6EFF0E2C6EAFDD1200EA
:060502008D6A8C6A1200F4
:10050800040E2B6E8DDD00C01FF001C020F0030E1D
:100518002B6E86DD00C017F001C018F0020E2B6E9E
:100528007FDD00C015F001C016F0010E2B6E78DDDE
:1005380000C01BF001C01CF02B6A72DD00C01DF06A
:1005480001C01EF0800E1A18026E800E0118025C9F
:1005580002E10050195C04E2010E236E000E246EC5
:10056800800E1E18006E800E1A18005C02E11950E9
:100578001D5C02E2236A246A800E1A18006E800E3F
:100588001C18005C02E11B50195C04E2010E216E8C
:10059800000E226E800E1C18006E800E1A18005C69
:1005A80002E119501B5C02E2216A226A800E1A18C5
:1005B800006E800E1618005C02E11550195C04E20A
:1005C800010E256E000E266E800E1618006E800E27
:1005D8001A18005C02E11950155C02E2256A266AC5
:1005E800800E1A18006E800E1818005C02E1175071
:1005F800195C04E2010E296E000E2A6E800E18188E
:10060800006E800E1A18005C02E11950175C02E2B5
:10061800296A2A6A800E1A18006E800E2018005C5B
:1006280002E11F50195C04E2010E276E000E286ECD
:10063800800E2018006E800E1A18005C02E1195016
:0A0648001F5C02E2276A286A120014
:100652000900F5CFE6FF0006FBE10106F9E1120011
:10066200780E196E000E1A6E2F0E0F01386F3A6B4C
:100672003B6B3C6B2F0E926E946A956A966A896AFE
:100682003FDF41DF35DD1A0E0C6EF80E0D6E0D2EBA
:0E069200FED70C2EFCD7000033DFF3D7FFD7C6
:020000040030CA
:0D000100231F3CFFBF81FF0FC00FE00F4029
:00000001FF
