:10000000DDEF00F00000000000EF00F00000000055
:0A0010000000000000000000F3D71C
:10001C000B6A0A6A096A00500402F4CF09F0F3CFA4
:10002C0008F001500502F4CF0BF0F3CF0AF00050AA
:10003C000502F3500926F4500A22E86A0B220150FB
:10004C000402F3500926F4500A22E86A0B2208C075
:10005C0000F009C001F00AC002F00BC003F012005E
:10006C00BB50010F006E016A000E01221EC004F08D
:10007C00000E056ECDDF060E026E00C004F001C04E
:10008C0005F0025005E005320432059EFF0FFAD749
:10009C00040E016E04C000F0015004E00036009024
:1000AC00FF0FFBD7300E0014036E04C000F005C028
:1000BC0001F001320032019E01320032019E00C07B
:0C00CC0067FF0F0E66160350661212004C
:0800D800676A6698669A12003F
:0A00E0009492BA840C0E661212000E
:1000EA00020E0C6E490E0D6E0D2EFED70C2EFCD78D
:0600FA00000000001200EE
:100100009490156A166ABA80BA92630EBB6EE4DFE9
:10011000020EB96E020E636E15C01EF0A7DFE0DF9F
:020120001200CB
:100122000F013A6B3B6B3C6B95809582958E958C5B
:0A013200958A958896929690120027
:10013C001D6A19C001F0010E006E015004E000367A
:10014C000090FF0FFBD700C01CF017C0E9FF18C0D0
:10015C00EAFF0050EE14016E0152010ED8A4000EFD
:10016C00006E1B50001A18E01A50000804E2B7DFAA
:10017C00B6DF1A06F9D717C0E9FF18C0EAFF1C5002
:10018C00EE14016E0152010ED8A4000E006E1B502D
:0E019C00001A02E0FF0E1D6E1DC000F01200E2
:1001AA000900F5CFE6FF0006FBE10106F9E11200BE
:1001BA00B3DFA1DF8D928D90830E176E0F0E186E2E
:1001CA00070E196E010E1A6E010E1B6EB2DF005277
:1001DA0002E08D928D90830E176E0F0E186E060E2A
:1001EA00196E010E1A6E010E1B6EA3DF005202E099
:1001FA008D928D80830E176E0F0E186E050E196E76
:10020A00010E1A6E010E1B6E94DF005202E08D82FF
:10021A008D80830E176E0F0E186E040E196E010E66
:10022A001A6E010E1B6E85DF005202E08D828D90E0
:10023A00830E176E0F0E186E010E196E050E1A6ECA
:10024A00010E1B6E76DF005205E0154A162A15C00C
:10025A001EF007DF830E176E0F0E186E196A050E51
:10026A001A6E010E1B6E65DF005207E0010E155E65
:0E027A00000E165A15C01EF0F4DE9ED7FFD7F8
:020000040030CA
:0D000100331F3CFF9C81FF0FC00FE00F403C
:00000001FF
